:040000004FEF00F0CE
:100008005282FACF31F0FBCF32F0D9CF33F0DACFCA
:1000180034F0F3CF35F0F4CF36F0F6CF37F0F7CF32
:1000280038F0F8CF39F0F5CF3AF0A0A61EEF00F07F
:1000380020EF00F029EF00F0A1A625EF00F027EF50
:1000480000F029EF00F0BFEC0BF09DA62EEF00F0BA
:1000580030EF00F039EF00F09EA635EF00F037EFF3
:1000680000F039EF00F0BCEC0BF03AC0F5FF39C0F6
:10007800F8FF38C0F7FF37C0F6FF36C0F4FF35C0C9
:10008800F3FF34C0DAFF33C0D9FF32C0FBFF31C001
:0A009800FAFF52921100E1EF0AF0A6
:101000000064150000000000000000000000000067
:1010100000000000000000000000000000000000D0
:101020000000000000000000000016E415000000B1
:101030000084170017F416FE138E1352174817E892
:10104000163E176C16000054149C1400000000009B
:1010500000AA1700000000446174653A0D0A000000
:1010600044C049F045C04AF041C046F00E0E462645
:1010700046C0F6FF100EF76EF86A0900F5CF47F08C
:101080000900F5CF48F002D84FEF08F00500FA6EDE
:101090004750FD6E4850FE6EFF6AFA50120000097C
:1010A000D8A455EF08F057EF08F034EF08F042C02D
:1010B0003BF043C03CF0490E3D6E000E3F6E020E09
:1010C0003E6E41C046F0040E462646C0F6FF100EA6
:1010D000F76EF86A0900F5CF47F00900F5CF48F040
:1010E00002D87CEF08F00500FA6E4750FD6E4850BC
:1010F000FE6EFF6AFA5012000009D8B482EF08F0C1
:1011000084EF08F0A7EF08F041C046F00E0E462627
:1011100046C0F6FF100EF76EF86A0900F5CF47F0EB
:101120000900F5CF48F002D89FEF08F00500FA6EED
:101130004750FD6E4850FE6EFF6AFA5012000009DB
:10114000D8A4A5EF08F0A7EF08F084EF08F012008C
:10115000E1EC0BF0C7A8AFEF08F0B1EF08F0B5EF86
:1011600008F00EEC0BF0E9EF08F060EC0BF0000972
:10117000D8B4BDEF08F0BFEF08F0CFEF08F04CECAB
:101180000BF00009D8B4C7EF08F0C9EF08F0CFEFB3
:1011900008F0050E0C6E010E0B6EE9EF08F056EC30
:1011A0000BF00009D8B4D7EF08F0D9EF08F0E9EF59
:1011B00008F04CEC0BF00009D8B4E1EF08F0E3EFD5
:1011C00008F0E9EF08F0050E0C6E020E0B6EE9EF69
:1011D00008F00C50020DF350310F2E6E2EC0F6FFAA
:1011E000100EF76EF86A0900F5CF2FF00900F5CF61
:1011F00030F002D805EF09F00500FA6E2F50FD6EB1
:101200003050FE6EFF6AFA5012000C6E12001CEC99
:101210000BF0F28EF28CF28C000E4C6E510E4B6E77
:10122000080E4D6E050E4E6E29EC0BF0000E4C6E46
:10123000530E4B6E080E4D6E060E4E6E29EC0BF0E3
:10124000030E516E980EE82EFED7512EFCD7000EDD
:10125000466E510E456E080E476E41EC0BF0296E3E
:10126000000E466E530E456E080E476E41EC0BF0B5
:10127000286E030E516E980EE82EFED7512EFCD725
:10128000000E4C6E9E0E4B6E8AEC09F0276E40EFFE
:1012900009F04FEF00F0446A41C03BF042C03CF01F
:1012A000430E3D6E000E3F6E010E3E6E2AEC0AF0BC
:1012B0000009D8B45EEF09F060EF09F088EF09F09B
:1012C000D5EC0BF00009D8A468EF09F06AEF09F03B
:1012D00060EF09F041C03BF042C03CF0440E3D6E6F
:1012E000000E3F6E010E3E6E4EEC0AF00009D8B4BF
:1012F0007CEF09F07EEF09F088EF09F0D5EC0BF0F8
:101300000009D8A486EF09F088EF09F07EEF09F014
:1013100044501200070E4E6E170E4D6E6A0EE82EE8
:10132000FED74D2EFCD74E2EFAD700F000F0000E5F
:10133000426E9E0E416E010E436E4BEC09F0506EF4
:10134000509E430E416E000E436E9E0E426E010E85
:10135000446E50C045F030EC08F0000E426E9E0E18
:10136000416E010E436E4BEC09F0506E50ACBBEF7A
:1013700009F0BDEF09F0ADEF09F0000E426E9E0ED0
:10138000416E000E436E4BEC09F04F501200040EFC
:101390002C6E6AEC0BF00009D8B4D1EF09F0D3EF52
:1013A00009F0FBEF09F008500910D8B4DAEF09F0A2
:1013B000DCEF09F0E6EF09F00750D96EDA6ADDECF0
:1013C0000BF0DF6E072A0806D8A00906085009109E
:1013D000D8B4EDEF09F0EFEF09F0F3EF09F0C8EC46
:1013E0000BF0FDEF09F0D9EC0BF0C5EC0BF0070E9C
:1013F0002C6EFDEF09F0DBEC0BF02C5012000550C9
:101400000610D8B406EF0AF008EF0AF016EF0AF05B
:101410000506D8A006060450D96EDA6ADF50B2EC91
:101420000BF0042A030E2D6E28EF0AF00A50D8B4F0
:101430001CEF0AF01EEF0AF025EF0AF00A6AD7EC5B
:101440000BF0010E2D6E28EF0AF074EC0BF02D6EF0
:101450002D501200406AD5EC0BF00009D8A433EFF0
:101460000AF035EF0AF04CEF0AF0010E016E3BC0B6
:1014700002F03CC003F00A6A3DC004F03EC005F033
:101480003FC006F0076A000E096E000E086E0B6A78
:1014900095EC0BF0010E406E40501200406AD5EC06
:1014A0000BF00009D8A457EF0AF059EF0AF070EFDB
:1014B0000AF0010E016E3BC002F03CC003F00A6A64
:1014C0003DC007F03EC008F03FC009F0046A000EBE
:1014D000066E000E056E0B6A9AEC0BF0010E406E64
:1014E00040501200060E0C6E030E0B6EE3EC0BF078
:1014F0000C50020DF350310F2E6E2EC0F6FF100E61
:10150000F76EF86A0900F5CF2FF00900F5CF30F03B
:1015100002D894EF0AF00500FA6E2F50FD6E30509D
:10152000FE6EFF6AFA5012000C6E1200D08EA28678
:101530009F86F292F18C000E3B6E000E3C6E90EC9A
:101540000BF0F090F18A000E3B6E000E3C6E8BECBF
:101550000BF0F092F188000E3B6E000E3C6E86ECB4
:101560000BF01200480EB86E900EAB6E260EAC6EED
:10157000A00EAF6E010EB06E000E3B6E000E3C6E04
:1015800000EC0BF0000E3B6E000E3C6EF2EC0AF02D
:10159000000E1E6E000E1D6E1200896A8A6A180EF9
:1015A0008B6E8C6A8D6A92689368BF0E946EFE0E85
:1015B000956E070E966E1F0E7F6E7C687D6AF286B2
:1015C000120000EE60F0200EEE6AE806FDE100EE8B
:1015D00001F02B0EEE6AE806FDE1529052920001F6
:1015E00007EF09F03B503C10D8B4F9EF0AF0FBEFDD
:1015F0000AF0FFEF0AF03BC019F03CC01AF01200ED
:101600003B503C10D8B407EF0BF009EF0BF00DEF97
:101610000BF03BC01BF03CC01CF01200016A000E36
:10162000036E0268046A076A0C6AE1EC0BF0E3ECF3
:101630000BF0CBEC0BF01200AEEC0BF0CDEC0AF0A3
:10164000B2EC0AF036EC0BF0B6EC0BF096EC0AF0CC
:101650001200430E416E4BC042F04CC043F04DC0EF
:1016600044F04EC045F030EC08F01200800EC76E1A
:10167000080EC66EC56A270EC86EB9EC0BF0C68A96
:10168000120045C041F046C042F047C043F04BEC69
:1016900009F0486E48501200C5BC51EF0BF054EFF2
:1016A0000BF0010E55EF0BF0000E1200C7BA5BEF06
:1016B0000BF05EEF0BF0010E5FEF0BF0000E12006F
:1016C000C7AA65EF0BF068EF0BF0010E69EF0BF0A6
:1016D000000E1200C7B06FEF0BF072EF0BF0010EAF
:1016E00073EF0BF0000E1200DFEC0BF00EEC0BF0C2
:1016F000000E120002500224B2EC0BF0030E120096
:10170000D8800234B2EC0BF0040E12003BC01FF084
:101710003CC020F012003BC021F03CC022F012007F
:101720003BC023F03CC024F01200D3EC0BF0020EBF
:101730000C6E1200D3EC0BF0010E0C6E1200CEEC0E
:101740000BF0016A000E12009FEC0BF02C6E2C5077
:10175000120074EC0BF02C6E2C501200700ED36E35
:101760009B6A12002C6E2CC0C9FF1200D1EC0BF04A
:1017700012009D86A0861200A8EC08F0120072EC00
:101780000AF01200016A080E1200C58AC58812000C
:10179000C59AC5881200C69EC69C1200C69AC68A03
:1017A0001200A6961200C580120001501200C582D8
:1017B0001200C5921200C5861200C9501200C584DD
:0A17C00012009E961200A19612007E
:020000040030CA
:0E000000FF021F1EFF8B85FF0FC00FE00F4099
:00000001FF
