:0400000007EF00F016
:0A0008007B8266ED0AF079EF10F03C
:10100000003738392F3435362A3132332D23303DED
:051010002B2569000022
:101016002F50800B386E2F502F243A6E2EAE16EFBF
:1010260008F018EF08F019EF08F03A803A50D8B4F3
:101036001FEF08F021EF08F035EF08F03A28D8A4A2
:1010460027EF08F029EF08F031EF08F0000E2C6EBC
:10105600000E2D6E000E2E6E000E2F6E2E8E2F6A37
:101066003DEF08F0000E2C6E000E2D6E000E2E6E5B
:10107600000E2F6E3350800B396E38503918D8B4A5
:1010860047EF08F049EF08F04AEF08F0388C335084
:101096003324396E32AE52EF08F054EF08F055EFB4
:1010A60008F039803950D8B45BEF08F05DEF08F0EE
:1010B60071EF08F03928D8A463EF08F065EF08F05F
:1010C6006DEF08F0000E306E000E316E000E326EBF
:1010D600000E336E328E336A79EF08F0000E306EF2
:1010E600000E316E000E326E000E336E3A50395CD1
:1010F600D8B080EF08F082EF08F0A9EF08F038AC1E
:1011060087EF08F089EF08F08BEF08F0800E381AA9
:101116003AC03BF039C03AF03BC039F02CC03BF046
:1011260030C02CF03BC030F02DC03BF031C02DF06C
:101136003BC031F02EC03BF032C02EF03BC032F047
:101146002FC03BF033C02FF03BC033F03B6A3A5020
:1011560039C034F0356A345E000E355A35BEBDEFFF
:1011660008F0355009E11A0E345CD8A0BDEF08F03E
:10117600BFEF08F0F6EF08F02C502D102E102F10B0
:10118600D8A4C8EF08F0CBEF08F0010ECCEF08F0BA
:10119600000E3B6E000E2C6E000E2D6E000E2E6E97
:1011A600000E2F6E39C03AF0FFEF08F03BA0DEEFDD
:1011B60008F0E0EF08F0E6EF08F0D8903B300109C0
:1011C6003B6EE8EF08F0D8903B322CA0EDEF08F02C
:1011D600EFEF08F0F0EF08F03B8E2F342F322E326F
:1011E6002D322C323A2A39503A5CD8A0FDEF08F05D
:1011F600FFEF08F0D9EF08F038BC04EF09F006EF6E
:1012060009F046EF09F03A50D8A40CEF09F00EEFBA
:1012160009F018EF09F0000E2C6E000E2D6E000E70
:101226002E6E000E2F6E65EF0AF030502C263150D0
:101236002D2232502E2233502F222FA025EF09F0D7
:1012460027EF09F0D3EF09F03BA02CEF09F02EEFC2
:1012560009F034EF09F0D8903B3001093B6E36EFC8
:1012660009F0D8903B322CA03BEF09F03DEF09F096
:101276003EEF09F03B8E2F342F322E322D322C3298
:101286003A2AD3EF09F030502C5C31502D583250A9
:101296002E582F50800A346E3350800A3458D8B0F6
:1012A60057EF09F059EF09F084EF09F02C50305C44
:1012B600346E2D503158356E2E503258366E2F50B2
:1012C6003358376EFF0E34242C6EFF0E35202D6EEC
:1012D600FF0E36202E6EFF0E37202F6E800E381A28
:1012E6003B6C3B50D8A47AEF09F07CEF09F08CEF09
:1012F60009F0010E2C26000E2D222E222F228CEF15
:1013060009F030502C5E31502D5A32502E5A33503F
:101316002F5A2C502D102E102F10D8A495EF09F00F
:1013260097EF09F0CCEF09F03B50D8A49DEF09F0F8
:101336009FEF09F0CCEF09F0000E2C6E000E2D6E1B
:10134600000E2E6E000E2F6E65EF0AF0D8902C362A
:101356002D362E362F363BAEB3EF09F0B5EF09F03A
:10136600B6EF09F02C803BA0BBEF09F0BDEF09F00A
:10137600C1EF09F0D8803B36C3EF09F0D8903B3671
:101386003A50D8B4C9EF09F0CBEF09F0CCEF09F029
:101396003A062EAED1EF09F0D3EF09F0A9EF09F026
:1013A600396A3BAED9EF09F0DBEF09F0F3EF09F04C
:1013B6003BC034F07F0E3416D8B4E4EF09F0E6EF04
:1013C60009F0EAEF09F0010E396EF3EF09F02CA0EF
:1013D600EFEF09F0F1EF09F0F3EF09F0E6EF09F0AE
:1013E6003950D8B4F9EF09F0FBEF09F026EF0AF00F
:1013F600010E2C26000E2D222E222F222FA006EFC4
:101406000AF008EF0AF026EF0AF02CC034F02DC0DF
:1014160035F02EC036F02FC037F03734373236323B
:101426003532343234C02CF035C02DF036C02EF0B3
:1014360037C02FF03A28D8B423EF0AF025EF0AF088
:1014460026EF0AF03A2A3A28D8B42CEF0AF02EEF03
:101456000AF036EF0AF03A50D8A434EF0AF036EF25
:101466000AF047EF0AF0000E2C6E000E2D6E000EED
:101476002E6E000E2F6E3A50D8A444EF0AF046EFB7
:101486000AF047EF0AF0386A3AA04CEF0AF04EEF3E
:101496000AF051EF0AF02E8E52EF0AF02E9ED890E7
:1014A6003A302F6E38AE5AEF0AF05CEF0AF05DEF75
:1014B6000AF02F8E2CC02CF02DC02DF02EC02EF051
:1014C6002FC02FF012000600FACF03F0FBCF04F076
:1014D600F2A870EF0AF072EF0AF07BEF0AF0F2A2C0
:1014E60077EF0AF079EF0AF07BEF0AF07EEC11F065
:1014F600F0A680EF0AF082EF0AF08BEF0AF0F0A078
:1015060087EF0AF089EF0AF08BEF0AF07CEC11F016
:10151600F0A890EF0AF092EF0AF09BEF0AF0F0A223
:1015260097EF0AF099EF0AF09BEF0AF07AEC11F0C8
:10153600F2A6A0EF0AF0A2EF0AF0BCEF0AF0F2A0C2
:10154600A7EF0AF0A9EF0AF0BCEF0AF081A8AEEF08
:101556000AF0B0EF0AF0BCEF0AF07A04D8A4B6EFAE
:101566000AF0B8EF0AF0BCEF0AF07A6A000E47EC10
:1015760011F0F2A6C1EF0AF0C3EF0AF0DEEF0AF0AF
:10158600F2A0C8EF0AF0CAEF0AF0DEEF0AF081B85F
:10159600CFEF0AF0D1EF0AF0DEEF0AF07A50D8A4C6
:1015A600D7EF0AF0D9EF0AF0DEEF0AF0010E7A6EF5
:1015B600010E47EC11F0F2A6E3EF0AF0E5EF0AF0B0
:1015C600FFEF0AF0F2A0EAEF0AF0ECEF0AF0FFEF05
:1015D6000AF081AAF1EF0AF0F3EF0AF0FFEF0AF042
:1015E6007904D8A4F9EF0AF0FBEF0AF0FFEF0AF04E
:1015F600796A000E3AEC11F0F2A604EF0BF006EF52
:101606000BF021EF0BF0F2A00BEF0BF00DEF0BF050
:1016160021EF0BF081BA12EF0BF014EF0BF021EF74
:101626000BF07950D8A41AEF0BF01CEF0BF021EF5A
:101636000BF0010E796E010E3AEC11F0F2A626EFD0
:101646000BF028EF0BF042EF0BF0F2A02DEF0BF0B2
:101656002FEF0BF042EF0BF081AC34EF0BF036EFCF
:101666000BF042EF0BF07804D8A43CEF0BF03EEF02
:101676000BF042EF0BF0786A000E2DEC11F0F2A69B
:1016860047EF0BF049EF0BF064EF0BF0F2A04EEFD3
:101696000BF050EF0BF064EF0BF081BC55EF0BF045
:1016A60057EF0BF064EF0BF07850D8A45DEF0BF01A
:1016B6005FEF0BF064EF0BF0010E786E010E2DEC70
:1016C60011F0F2A669EF0BF06BEF0BF085EF0BF064
:1016D600F2A070EF0BF072EF0BF085EF0BF081AE1E
:1016E60077EF0BF079EF0BF085EF0BF07704D8A4CA
:1016F6007FEF0BF081EF0BF085EF0BF0776A000EB2
:1017060020EC11F0F2A68AEF0BF08CEF0BF0A7EFAE
:101716000BF0F2A091EF0BF093EF0BF0A7EF0BF0AD
:1017260081BE98EF0BF09AEF0BF0A7EF0BF0775016
:10173600D8A4A0EF0BF0A2EF0BF0A7EF0BF0010E71
:10174600776E010E20EC11F09DACACEF0BF0AEEF16
:101756000BF0B7EF0BF09EACB3EF0BF0B5EF0BF061
:10176600B7EF0BF08AEC11F0F2AABCEF0BF0BEEF6C
:101776000BF0C7EF0BF0F2A4C3EF0BF0C5EF0BF0C5
:10178600C7EF0BF005EC11F09DA0CCEF0BF0CEEF00
:101796000BF0D7EF0BF09EA0D3EF0BF0D5EF0BF0CD
:1017A600D7EF0BF065EC11F09DA2DCEF0BF0DEEF4E
:1017B6000BF0E7EF0BF09EA2E3EF0BF0E5EF0BF07B
:1017C600E7EF0BF071EC11F0A0A2ECEF0BF0EEEFEF
:1017D6000BF0F7EF0BF0A1A2F3EF0BF0F5EF0BF028
:1017E600F7EF0BF05FEC11F09DA4FCEF0BF0FEEFB2
:1017F6000BF007EF0CF09EA403EF0CF005EF0CF0D6
:1018060007EF0CF088EC11F0A0A00CEF0CF00EEF37
:101816000CF017EF0CF0A1A013EF0CF015EF0CF085
:1018260017EF0CF086EC11F09DA81CEF0CF01EEFE4
:101836000CF027EF0CF09EA823EF0CF025EF0CF030
:1018460027EF0CF084EC11F09DAA2CEF0CF02EEF94
:101856000CF037EF0CF09EAA33EF0CF035EF0CF0DE
:1018660037EF0CF08CEC11F09DA63CEF0CF03EEF40
:101876000CF047EF0CF09EA643EF0CF045EF0CF092
:1018860047EF0CF078EC11F09DA64CEF0CF04EEF04
:101896000CF057EF0CF09EA653EF0CF055EF0CF042
:1018A60057EF0CF0EEEC10F0A0A65CEF0CF05EEF3C
:1018B6000CF067EF0CF0A1A663EF0CF065EF0CF0EF
:1018C60067EF0CF082EC11F004C0FBFF03C0FAFFD7
:1018D6007B9211001650800B236E165016242A6E2A
:1018E60015AE78EF0CF07AEF0CF07BEF0CF02A8057
:1018F6002A50D8B481EF0CF083EF0CF097EF0CF080
:101906002A28D8A489EF0CF08BEF0CF093EF0CF09B
:10191600000E136E000E146E000E156E000E166E7F
:10192600158E166A9FEF0CF0000E136E000E146EE5
:10193600000E156E000E166E1A50800B231A1A50E2
:101946001A242B6E19AEAAEF0CF0ACEF0CF0ADEF2B
:101956000CF02B802B50D8B4B3EF0CF0B5EF0CF095
:10196600C9EF0CF02B28D8A4BBEF0CF0BDEF0CF0A0
:10197600C5EF0CF0000E176E000E186E000E196EF5
:10198600000E1A6E198E1A6AD1EF0CF0000E176E41
:10199600000E186E000E196E000E1A6E17501810F3
:1019A60019101A10D8A4DAEF0CF0DCEF0CF0F4EFF3
:1019B6000CF0000E136E000E146E000E156E000E67
:1019C600166E800E15127F0E16122350161213C0B5
:1019D60013F014C014F015C015F016C016F034EF4D
:1019E6000EF02A50D8A4FAEF0CF0FCEF0CF006EF3C
:1019F6000DF0000E136E000E146E000E156E000E26
:101A0600166E34EF0EF02B502AC01BF01C6A1B5EBC
:101A1600000E1C5A7F0E1B24246E000E1C20256E01
:101A260013C01FF014C020F015C021F016C022F01C
:101A3600000E136E000E146E000E156E000E166E5E
:101A4600000E266E000E276E000E286E000E296E02
:101A56002B6A66EF0DF02B50D8B434EF0DF036EF4D
:101A66000DF04DEF0DF0D8901F3620362136223678
:101A7600D890133614361536163629AE45EF0DF0C6
:101A860047EF0DF048EF0DF01380D8902636273635
:101A96002836293617501F5C1850205819502158DF
:101AA6001A502258D8A05AEF0DF05CEF0DF065EFF2
:101AB6000DF0298C17501F5E1850205A1950215AC4
:101AC6001A50225A2B2A190E2B646CEF0DF06EEF6A
:101AD6000DF02EEF0DF01F50201021102210D8B45B
:101AE60077EF0DF079EF0DF091EF0DF0268091EF85
:101AF6000DF0D890133614361536163629AE86EF05
:101B06000DF088EF0DF089EF0DF01380D890263692
:101B16002736283629362406D8A0250615AE96EF90
:101B26000DF098EF0DF07CEF0DF02B6A29AE9EEFCD
:101B36000DF0A0EF0DF0C4EF0DF0FF0E26141B6E96
:101B4600FF0E27141C6EFF0E28141D6E7F0E29141F
:101B56001E6E1B501C101D101E10D8B4B5EF0DF0D4
:101B6600B7EF0DF0BBEF0DF0010E2B6EC4EF0DF0CD
:101B760013A0C0EF0DF0C2EF0DF0C4EF0DF0B7EFFC
:101B86000DF02B50D8B4CAEF0DF0CCEF0DF0F0EFFE
:101B96000DF0010E1326000E14221522162216A091
:101BA600D7EF0DF0D9EF0DF0F0EF0DF013C01BF0ED
:101BB60014C01CF015C01DF016C01EF01E341E32D7
:101BC6001D321C321B321BC013F01CC014F01DC08A
:101BD60015F01EC016F0244A252A25BEFBEF0DF08F
:101BE600255008E12428D8A0FBEF0DF0FDEF0DF0FD
:101BF60008EF0EF0000E256E2468000E136E000E20
:101C0600146E000E156E000E166E25BE15EF0EF044
:101C1600255006E12404D8B013EF0EF015EF0EF0B0
:101C260022EF0EF0000E256E000E246E000E136ECF
:101C3600000E146E000E156E000E166E236A24C07A
:101C46002AF02AA029EF0EF02BEF0EF02EEF0EF061
:101C5600158E2FEF0EF0159ED8902A30166EE8EFEF
:101C66000CF012000D6E0D50D8B43CEF0EF03EEFA6
:101C76000EF060EF0EF008BE45EF0EF043EF0EF0EB
:101C860060EF0EF005C009F006C00AF007C00BF0C1
:101C960008C00CF0091E0A1E0B1E0C1E092A000E97
:101CA6000A220B220C2209C00FF00AC010F00BC04A
:101CB60011F00CC012F068EF0EF005C00FF006C070
:101CC60010F007C011F008C012F0055006100710FA
:101CD6000810D8A471EF0EF073EF0EF07DEF0EF042
:101CE600000E056E000E066E000E076E000E086EE4
:101CF6000EEF0FF0960E0E6E87EF0EF00E2AD890AE
:101D06001232113210320F32000E0F14096E000E0D
:101D160010140A6E000E11140B6EFE0E12140C6EC9
:101D260009500A100B100C10D8A49CEF0EF09EEF71
:101D36000EF081EF0EF0ACEF0EF00E2A010E0F261C
:101D4600000E102211221222D890123211321032B5
:101D56000F32000E0F14096E000E10140A6E000EDC
:101D660011140B6EFF0E12140C6E09500A100B1094
:101D76000C10D8A4C1EF0EF0C3EF0EF0A0EF0EF0DA
:101D8600CBEF0EF00E06D8900F36103611361236FF
:101D960011BED0EF0EF0D2EF0EF0DAEF0EF0020E1B
:101DA6000E60D8EF0EF0DAEF0EF0C5EF0EF00EB0C3
:101DB600DFEF0EF0E1EF0EF0E2EF0EF0119ED8909D
:101DC6000E320EC009F00A6A0B6A0C6A09C00CF0E2
:101DD6000B6A0A6A096A09500F120A5010120B5050
:101DE60011120C5012120D50D8B4FCEF0EF0FEEF8B
:101DF6000EF006EF0FF008BE05EF0FF003EF0FF041
:101E060006EF0FF0128E0FC005F010C006F011C0DD
:101E160007F012C008F012000001E151D8A416EF35
:101E26000FF018EF0FF01BEF0FF0E26BA8EF0FF0BB
:101E3600C69AC68AE151D96EDA6A0C0ED926DFA097
:101E460027EF0FF029EF0FF02FEF0FF0E1C0DFF0D3
:101E56002DEC10F065EF0FF0E151D96EDA6A0C0E39
:101E6600D926DFB039EF0FF03BEF0FF065EF0FF03B
:101E7600E151D96EDA6A0C0ED926DFA645EF0FF0CE
:101E860047EF0FF04AEF0FF0C58E57EF0FF0E15115
:101E9600D96EDA6A0C0ED926DFB654EF0FF056EF7C
:101EA6000FF057EF0FF0C59EC69EC69CC688E1513F
:101EB600D96EDA6A0B0ED926DF50C86EE1C005F07E
:101EC60013EC11F075EC11F00001E151D96EDA6AEC
:101ED6000C0ED926DFB272EF0FF074EF0FF077EF2A
:101EE6000FF0C79E84EF0FF0E151D96EDA6A0C0E3F
:101EF600D926DFA281EF0FF083EF0FF084EF0FF00A
:101F0600C78EE151D96EDA6A0C0ED926DFA48EEFA0
:101F16000FF090EF0FF093EF0FF0C78CA0EF0FF0DC
:101F2600E151D96EDA6A0C0ED926DFB49DEF0FF0B7
:101F36009FEF0FF0A0EF0FF0C79CE1C005F0AAECF1
:101F460010F0C68A010E0001E26FE25112003E3423
:101F56003F34456E4550D8A4B3EF0FF0B5EF0FF000
:101F6600BFEF0FF0000E3C6E000E3D6E000E3E6E93
:101F7600000E3F6E2CEF10F03CC040F03DC041F02B
:101F86003EC042F03FC043F0200ECFEF0FF0D89096
:101F96004332423241324032E82ECAEF0FF040500F
:101FA600446E3E8EFF0E3C16FF0E3D16FF0E3E168D
:101FB600000E3F16960E455E45BEE6EF0FF0E4EFC7
:101FC6000FF0FCEF0FF04550800A970FD8B0EEEFF8
:101FD6000FF0F0EF0FF0F2EF0FF0B5EF0FF0D89033
:101FE6003F323E323D323C32453EF2EF0FF014EFC7
:101FF60010F01F0E456402EF10F004EF10F00CEF26
:1020060010F0B5EF0FF0D8903C363D363E363F36F1
:1020160045064550D8A412EF10F014EF10F006EF65
:1020260010F04450D8B41AEF10F01CEF10F024EF63
:1020360010F03F1E3E1E3D1E3C6C000E3D223E2211
:102046003F223CC03CF03DC03DF03EC03EF03FC0AC
:102056003FF012000001DF51D96EDA6A0A0ED92666
:10206600DF50E06FC650E019F00BE019C66E000EA7
:10207600306E000E316E800E326EBF0E336EDF5143
:10208600D96EDA6ADECF05F0DECF06F0DECF07F0D6
:10209600DECF08F0000E35EC0EF005C017F006C0D6
:1020A60018F007C019F008C01AF0000E136E240EBF
:1020B600146EF40E156E490E166E6DEC0CF013C010
:1020C6002CF014C02DF015C02EF016C02FF00BEC1E
:1020D60008F02CC03CF02DC03DF02EC03EF02FC0C5
:1020E6003FF0AAEC0FF03C50C86E1200980EF66E48
:1020F600210EF76E000EF86E00EE80F010EE43F043
:102106000900F5CFEEFFE550E150FAE1D60EF66E86
:10211600220EF76E000EF86E00EE70F010EE0BF069
:102126000900F5CFEEFFE550E150FAE100EEC3F00D
:102136001C0EEE6AE806FDE100EE46F02A0EEE6A97
:10214600E806FDE17B907B92000154EF11F09D863D
:10215600A0869E96A1960550D96EDA6A060ED926F5
:10216600DECF46F0DDCF47F00550D96EDA6A040EB1
:10217600D926DECFC5F0DDCFC6F00550D96EDA6AB6
:10218600080ED926DECFC3F0DDCFC4F0F28EF28C76
:102196001200800F810F820F830F840F890F8A0F21
:1021A6008B0F8C0F8D0F920F930F940F950F960F29
:1021B60000000000000000230000066202323A031D
:1021C6000B131B232B333B020A121A626A727A0222
:0521D6000A121A222A82
:1021DC009E9646504710D8B4F6EF10F0F8EF10F07A
:1021EC0004EF11F002D804EF11F00500FA6E46501E
:1021FC00FD6E4750FE6EFF6AFA5012001200F29408
:10220C006850016E026A02C001F0026A01BE0268E7
:10221C000150D76E68C0D6FF12000550D96EDA6A2D
:10222C000A0ED926DF50066EC6500618F00B06189B
:10223C00C66E1200016EF2900150D8A428EF11F076
:10224C002AEF11F02CEF11F02CEF11F01200016EAF
:10225C00F2900150D8A435EF11F037EF11F039EFAF
:10226C0011F039EF11F01200016EF2900150D8A468
:10227C0042EF11F044EF11F046EF11F046EF11F080
:10228C001200016EF2900150D8A44FEF11F051EFF3
:10229C0011F053EF11F053EF11F012009E0E0001EC
:1022AC00E16F0FEC0FF00001E36F5BEF11F007EF44
:1022BC0000F0A1924950B36E48C0B2FF12009E903C
:1022CC004B50CF6E4AC0CEFF1200685A622A1A6277
:0522DC002A01010101CF
:1022E2009E9267C0CCFF12009486948812009E963C
:1022F2001200F0921200F0901200F2921200642A80
:102302001200A19612009D981200A19012009E94B4
:0823120012009E9C1200120053
:020000040030CA
:0E000000FF02091EFF8181FF0FC00FE00F40BD
:00000001FF
