:0400000007EF00F016
:0A0008007D8266ED0AF002EF11F0B0
:10100000003738392F3435362A3132332D23303DED
:051010002B2569000022
:101016002D50800B366E2D502D24386E2CAE16EFCB
:1010260008F018EF08F019EF08F038803850D8B4F7
:101036001FEF08F021EF08F035EF08F03828D8A4A4
:1010460027EF08F029EF08F031EF08F0000E2A6EBE
:10105600000E2B6E000E2C6E000E2D6E2C8E2D6A41
:101066003DEF08F0000E2A6E000E2B6E000E2C6E61
:10107600000E2D6E3150800B376E36503718D8B4AF
:1010860047EF08F049EF08F04AEF08F0368C315088
:101096003124376E30AE52EF08F054EF08F055EFBA
:1010A60008F037803750D8B45BEF08F05DEF08F0F2
:1010B60071EF08F03728D8A463EF08F065EF08F061
:1010C6006DEF08F0000E2E6E000E2F6E000E306EC5
:1010D600000E316E308E316A79EF08F0000E2E6EFA
:1010E600000E2F6E000E306E000E316E3850375CDB
:1010F600D8B080EF08F082EF08F0A9EF08F036AC20
:1011060087EF08F089EF08F08BEF08F0800E361AAB
:1011160038C039F037C038F039C037F02AC039F056
:101126002EC02AF039C02EF02BC039F02FC02BF07C
:1011360039C02FF02CC039F030C02CF039C030F057
:101146002DC039F031C02DF039C031F0396A385030
:1011560037C032F0336A325E000E335A33BEBDEF0B
:1011660008F0335009E11A0E325CD8A0BDEF08F042
:10117600BFEF08F0F6EF08F02A502B102C102D10B8
:10118600D8A4C8EF08F0CBEF08F0010ECCEF08F0BA
:10119600000E396E000E2A6E000E2B6E000E2C6E9F
:1011A600000E2D6E37C038F0FFEF08F039A0DEEFE5
:1011B60008F0E0EF08F0E6EF08F0D89039300109C2
:1011C600396EE8EF08F0D89039322AA0EDEF08F032
:1011D600EFEF08F0F0EF08F0398E2D342D322C3277
:1011E6002B322A32382A3750385CD8A0FDEF08F067
:1011F600FFEF08F0D9EF08F036BC04EF09F006EF70
:1012060009F046EF09F03850D8A40CEF09F00EEFBC
:1012160009F018EF09F0000E2A6E000E2B6E000E74
:101226002C6E000E2D6E65EF0AF02E502A262F50DA
:101236002B2230502C2231502D222DA025EF09F0E3
:1012460027EF09F0D3EF09F039A02CEF09F02EEFC4
:1012560009F034EF09F0D89039300109396E36EFCC
:1012660009F0D89039322AA03BEF09F03DEF09F09A
:101276003EEF09F0398E2D342D322C322B322A32A4
:10128600382AD3EF09F02E502A5C2F502B583050B5
:101296002C582D50800A326E3150800A3258D8B000
:1012A60057EF09F059EF09F084EF09F02A502E5C48
:1012B600326E2B502F58336E2C503058346E2D50C2
:1012C6003158356EFF0E32242A6EFF0E33202B6EF8
:1012D600FF0E34202C6EFF0E35202D6E800E361A32
:1012E600396C3950D8A47AEF09F07CEF09F08CEF0D
:1012F60009F0010E2A26000E2B222C222D228CEF1D
:1013060009F02E502A5E2F502B5A30502C5A31504D
:101316002D5A2A502B102C102D10D8A495EF09F019
:1013260097EF09F0CCEF09F03950D8A49DEF09F0FA
:101336009FEF09F0CCEF09F0000E2A6E000E2B6E1F
:10134600000E2C6E000E2D6E65EF0AF0D8902A3630
:101356002B362C362D3639AEB3EF09F0B5EF09F042
:10136600B6EF09F02A8039A0BBEF09F0BDEF09F00E
:10137600C1EF09F0D8803936C3EF09F0D890393675
:101386003850D8B4C9EF09F0CBEF09F0CCEF09F02B
:1013960038062CAED1EF09F0D3EF09F0A9EF09F02A
:1013A600376A39AED9EF09F0DBEF09F0F3EF09F050
:1013B60039C032F07F0E3216D8B4E4EF09F0E6EF0A
:1013C60009F0EAEF09F0010E376EF3EF09F02AA0F3
:1013D600EFEF09F0F1EF09F0F3EF09F0E6EF09F0AE
:1013E6003750D8B4F9EF09F0FBEF09F026EF0AF011
:1013F600010E2A26000E2B222C222D222DA006EFCE
:101406000AF008EF0AF026EF0AF02AC032F02BC0E5
:1014160033F02CC034F02DC035F03534353234324B
:101426003332323232C02AF033C02BF034C02CF0C3
:1014360035C02DF03828D8B423EF0AF025EF0AF08E
:1014460026EF0AF0382A3828D8B42CEF0AF02EEF07
:101456000AF036EF0AF03850D8A434EF0AF036EF27
:101466000AF047EF0AF0000E2A6E000E2B6E000EF1
:101476002C6E000E2D6E3850D8A444EF0AF046EFBD
:101486000AF047EF0AF0366A38A04CEF0AF04EEF42
:101496000AF051EF0AF02C8E52EF0AF02C9ED890EB
:1014A60038302D6E36AE5AEF0AF05CEF0AF05DEF7B
:1014B6000AF02D8E2AC02AF02BC02BF02CC02CF05F
:1014C6002DC02DF012000600F2A86CEF0AF06EEFA8
:1014D6000AF077EF0AF0F2A273EF0AF075EF0AF05E
:1014E60077EF0AF018EC12F0F0A67CEF0AF07EEF28
:1014F6000AF087EF0AF0F0A083EF0AF085EF0AF012
:1015060087EF0AF016EC12F0F0A88CEF0AF08EEFD7
:101516000AF097EF0AF0F0A293EF0AF095EF0AF0BF
:1015260097EF0AF014EC12F0F2A69CEF0AF09EEF89
:101536000AF0B8EF0AF0F2A0A3EF0AF0A5EF0AF05E
:10154600B8EF0AF081A8AAEF0AF0ACEF0AF0B8EFFC
:101556000AF07C04D8A4B2EF0AF0B4EF0AF0B8EFB0
:101566000AF07C6A000EECEC11F0F2A6BDEF0AF070
:10157600BFEF0AF0DAEF0AF0F2A0C4EF0AF0C6EF06
:101586000AF0DAEF0AF081B8CBEF0AF0CDEF0AF0F5
:10159600DAEF0AF07C50D8A4D3EF0AF0D5EF0AF0C0
:1015A600DAEF0AF0010E7C6E010EECEC11F0F2A6F9
:1015B600DFEF0AF0E1EF0AF0FBEF0AF0F2A0E6EF48
:1015C6000AF0E8EF0AF0FBEF0AF081AAEDEF0AF065
:1015D600EFEF0AF0FBEF0AF07B04D8A4F5EF0AF070
:1015E600F7EF0AF0FBEF0AF07B6A000EDFEC11F072
:1015F600F2A600EF0BF002EF0BF01DEF0BF0F2A0DE
:1016060007EF0BF009EF0BF01DEF0BF081BA0EEFB1
:101616000BF010EF0BF01DEF0BF07B50D8A416EF7C
:101626000BF018EF0BF01DEF0BF0010E7B6E010EA9
:10163600DFEC11F0F2A622EF0BF024EF0BF03EEFF9
:101646000BF0F2A029EF0BF02BEF0BF03EEF0BF0B7
:1016560081AC30EF0BF032EF0BF03EEF0BF07A047B
:10166600D8A438EF0BF03AEF0BF03EEF0BF07A6AA6
:10167600000ED2EC11F0F2A643EF0BF045EF0BF0A3
:1016860060EF0BF0F2A04AEF0BF04CEF0BF060EFBF
:101696000BF081BC51EF0BF053EF0BF060EF0BF04A
:1016A6007A50D8A459EF0BF05BEF0BF060EF0BF01C
:1016B600010E7A6E010ED2EC11F0F2A665EF0BF078
:1016C60067EF0BF081EF0BF0F2A06CEF0BF06EEF13
:1016D6000BF081EF0BF081AE73EF0BF075EF0BF0B3
:1016E60081EF0BF07904D8A47BEF0BF07DEF0BF0C4
:1016F60081EF0BF0796A000EC5EC11F0F2A686EFC9
:101706000BF088EF0BF0A3EF0BF0F2A08DEF0BF0D0
:101716008FEF0BF0A3EF0BF081BE94EF0BF096EF7B
:101726000BF0A3EF0BF07950D8A49CEF0BF09EEFD3
:101736000BF0A3EF0BF0010E796E010EC5EC11F064
:101746009DACA8EF0BF0AAEF0BF0B3EF0BF09EAC3D
:10175600AFEF0BF0B1EF0BF0B3EF0BF020EC12F0A4
:10176600F2AAB8EF0BF0BAEF0BF0C3EF0BF0F2A44E
:10177600BFEF0BF0C1EF0BF0C3EF0BF0AAEC11F0CB
:101786009DA0C8EF0BF0CAEF0BF0D3EF0BF09EA0B5
:10179600CFEF0BF0D1EF0BF0D3EF0BF0FFEC11F026
:1017A6009DA2D8EF0BF0DAEF0BF0E3EF0BF09EA261
:1017B600DFEF0BF0E1EF0BF0E3EF0BF00BEC12F0C9
:1017C600A0A2E8EF0BF0EAEF0BF0F3EF0BF0A1A20B
:1017D600EFEF0BF0F1EF0BF0F3EF0BF0F9EC11F08C
:1017E6009DA4F8EF0BF0FAEF0BF003EF0CF09EA4BC
:1017F600FFEF0BF001EF0CF003EF0CF01EEC12F014
:10180600A0A008EF0CF00AEF0CF013EF0CF0A1A06B
:101816000FEF0CF011EF0CF013EF0CF01CEC12F0C4
:101826009DA818EF0CF01AEF0CF023EF0CF09EA811
:101836001FEF0CF021EF0CF023EF0CF01AEC12F076
:101846009DAA28EF0CF02AEF0CF033EF0CF09EAABD
:101856002FEF0CF031EF0CF033EF0CF024EC12F01C
:101866009DA638EF0CF03AEF0CF043EF0CF09EA675
:101876003FEF0CF041EF0CF043EF0CF012EC12F0DE
:101886009DA648EF0CF04AEF0CF053EF0CF09EA625
:101896004FEF0CF051EF0CF053EF0CF022EC12F07E
:1018A600A0A658EF0CF05AEF0CF063EF0CF0A1A6CF
:1018B6005FEF0CF061EF0CF063EF0CF023EC12F02D
:1018C6007D9211001450800B216E14501424286E42
:1018D60013AE70EF0CF072EF0CF073EF0CF0288083
:1018E6002850D8B479EF0CF07BEF0CF08FEF0CF0AA
:1018F6002828D8A481EF0CF083EF0CF08BEF0CF0C6
:10190600000E116E000E126E000E136E000E146E97
:10191600138E146A97EF0CF0000E116E000E126E05
:10192600000E136E000E146E1850800B211A1850FC
:101936001824296E17AEA2EF0CF0A4EF0CF0A5EF59
:101946000CF029802950D8B4ABEF0CF0ADEF0CF0B9
:10195600C1EF0CF02928D8A4B3EF0CF0B5EF0CF0CA
:10196600BDEF0CF0000E156E000E166E000E176E13
:10197600000E186E178E186AC9EF0CF0000E156E61
:10198600000E166E000E176E000E186E155016100D
:1019960017101810D8A4D2EF0CF0D4EF0CF0ECEF1F
:1019A6000CF0000E116E000E126E000E136E000E7D
:1019B600146E800E13127F0E14122150141211C0D1
:1019C60011F012C012F013C013F014C014F02CEF73
:1019D6000EF02850D8A4F2EF0CF0F4EF0CF0FEEF66
:1019E6000CF0000E116E000E126E000E136E000E3D
:1019F600146E2CEF0EF0295028C019F01A6A195EE1
:101A0600000E1A5A7F0E1924226E000E1A20236E1B
:101A160011C01DF012C01EF013C01FF014C020F03C
:101A2600000E116E000E126E000E136E000E146E76
:101A3600000E246E000E256E000E266E000E276E1A
:101A4600296A5EEF0DF02950D8B42CEF0DF02EEF79
:101A56000DF045EF0DF0D8901D361E361F36203698
:101A6600D890113612361336143627AE3DEF0DF0E8
:101A76003FEF0DF040EF0DF01180D890243625365B
:101A86002636273615501D5C16501E5817501F58FF
:101A960018502058D8A052EF0DF054EF0DF05DEF1E
:101AA6000DF0278C15501D5E16501E5A17501F5AE2
:101AB6001850205A292A190E296464EF0DF066EF92
:101AC6000DF026EF0DF01D501E101F102010D8B47B
:101AD6006FEF0DF071EF0DF089EF0DF0248089EFB7
:101AE6000DF0D890113612361336143627AE7EEF27
:101AF6000DF080EF0DF081EF0DF01180D8902436B7
:101B06002536263627362206D8A0230613AE8EEFB4
:101B16000DF090EF0DF074EF0DF0296A27AE96EFF9
:101B26000DF098EF0DF0BCEF0DF0FF0E2414196EBA
:101B3600FF0E25141A6EFF0E26141B6E7F0E271439
:101B46001C6E19501A101B101C10D8B4ADEF0DF0F6
:101B5600AFEF0DF0B3EF0DF0010E296EBCEF0DF0F7
:101B660011A0B8EF0DF0BAEF0DF0BCEF0DF0AFEF2E
:101B76000DF02950D8B4C2EF0DF0C4EF0DF0E8EF28
:101B86000DF0010E1126000E12221322142214A0AB
:101B9600CFEF0DF0D1EF0DF0E8EF0DF011C019F019
:101BA60012C01AF013C01BF014C01CF01C341C32F7
:101BB6001B321A32193219C011F01AC012F01BC0AA
:101BC60013F01CC014F0224A232A23BEF3EF0DF0B3
:101BD600235008E12228D8A0F3EF0DF0F5EF0DF021
:101BE60000EF0EF0000E236E2268000E116E000E3E
:101BF600126E000E136E000E146E23BE0DEF0EF065
:101C0600235006E12204D8B00BEF0EF00DEF0EF0D4
:101C16001AEF0EF0000E236E000E226E000E116EED
:101C2600000E126E000E136E000E146E216A22C094
:101C360028F028A021EF0EF023EF0EF026EF0EF08D
:101C4600138E27EF0EF0139ED8902830146EE0EF17
:101C56000CF012000B6E0B50D8B434EF0EF036EFCA
:101C66000EF058EF0EF006BE3DEF0EF03BEF0EF015
:101C760058EF0EF003C007F004C008F005C009F0E5
:101C860006C00AF0071E081E091E0A1E072A000EB5
:101C9600082209220A2207C00DF008C00EF009C06A
:101CA6000FF00AC010F060EF0EF003C00DF004C094
:101CB6000EF005C00FF006C010F00350041005101A
:101CC6000610D8A469EF0EF06BEF0EF075EF0EF06C
:101CD600000E036E000E046E000E056E000E066EFC
:101CE60006EF0FF0960E0C6E7FEF0EF00C2AD890D2
:101CF60010320F320E320D32000E0D14076E000E2A
:101D06000E14086E000E0F14096EFE0E10140A6EE5
:101D16000750081009100A10D8A494EF0EF096EF99
:101D26000EF079EF0EF0A4EF0EF00C2A010E0D2640
:101D3600000E0E220F221022D89010320F320E32D1
:101D46000D32000E0D14076E000E0E14086E000EF6
:101D56000F14096EFF0E10140A6E075008100910B2
:101D66000A10D8A4B9EF0EF0BBEF0EF098EF0EF004
:101D7600C3EF0EF00C06D8900D360E360F36103621
:101D86000FBEC8EF0EF0CAEF0EF0D2EF0EF0020E45
:101D96000C60D0EF0EF0D2EF0EF0BDEF0EF00CB0EF
:101DA600D7EF0EF0D9EF0EF0DAEF0EF00F9ED890C7
:101DB6000C320CC007F0086A096A0A6A07C00AF002
:101DC600096A086A076A07500D1208500E12095070
:101DD6000F120A5010120B50D8B4F4EF0EF0F6EFB3
:101DE6000EF0FEEF0EF006BEFDEF0EF0FBEF0EF06E
:101DF600FEEF0EF0108E0DC003F00EC004F00FC003
:101E060005F010C006F012004650D8A40DEF0FF0F2
:101E16000FEF0FF012EF0FF0476A99EF0FF0C69A27
:101E2600C68A4650D96EDA6A060ED926DFA01EEF9C
:101E36000FF020EF0FF026EF0FF046C044F082ECD3
:101E460010F05CEF0FF04650D96EDA6A060ED9260E
:101E5600DFB030EF0FF032EF0FF05CEF0FF04650CF
:101E6600D96EDA6A060ED926DFA63CEF0FF03EEFF2
:101E76000FF041EF0FF0C58E4EEF0FF04650D96EC2
:101E8600DA6A060ED926DFB64BEF0FF04DEF0FF0EC
:101E96004EEF0FF0C59EC69EC69CC6884650D96EAC
:101EA600DA6A050ED926DF50C86E46C003F0B8ECD4
:101EB60011F00FEC12F04650D96EDA6A060ED926EA
:101EC600DFB268EF0FF06AEF0FF06DEF0FF0C79E0D
:101ED6007AEF0FF04650D96EDA6A060ED926DFA2DF
:101EE60077EF0FF079EF0FF07AEF0FF0C78E4650CD
:101EF600D96EDA6A060ED926DFA484EF0FF086EFD4
:101F06000FF089EF0FF0C78C96EF0FF04650D96EA1
:101F1600DA6A060ED926DFB493EF0FF095EF0FF0CD
:101F260096EF0FF0C79CC68A010E476E4750120007
:101F36003C343D34436E4350D8A4A4EF0FF0A6EFD3
:101F46000FF0B0EF0FF0000E3A6E000E3B6E000E73
:101F56003C6E000E3D6E1DEF10F03AC03EF03BC0E9
:101F66003FF03CC040F03DC041F0200EC0EF0FF006
:101F7600D890413240323F323E32E82EBBEF0FF06E
:101F86003E50426E3C8EFF0E3A16FF0E3B16FF0E7B
:101F96003C16000E3D16960E435E43BED7EF0FF07D
:101FA600D5EF0FF0EDEF0FF04350800A970FD8B042
:101FB600DFEF0FF0E1EF0FF0E3EF0FF0A6EF0FF01A
:101FC600D8903D323C323B323A32433EE3EF0FF09B
:101FD60005EF10F01F0E4364F3EF0FF0F5EF0FF06F
:101FE600FDEF0FF0A6EF0FF0D8903A363B363C36B1
:101FF6003D3643064350D8A403EF10F005EF10F02A
:10200600F7EF0FF04250D8B40BEF10F00DEF10F0D1
:1020160015EF10F03D1E3C1E3B1E3A6C000E3B2297
:102026003C223D223AC03AF03BC03BF03CC03CF07B
:102036003DC03DF01200A00E6A6E860E6B6E010E5C
:102046006C6E000E6D6E7080080E6E6E70947082EF
:102056006A0E466E07EC0FF0610E076E600E73ECAB
:1020660011F0060E0001D76F130ED66FAD0EE82ED7
:10207600FED7D62FFCD7D72FFAD700D0620E076E21
:10208600620E73EC11F0060E0001D76F130ED66FB9
:10209600AD0EE82EFED7D62FFCD7D72FFAD700D015
:1020A600630E076E600E73EC11F0060E0001D76F1B
:1020B600130ED66FAD0EE82EFED7D62FFCD7D72F30
:1020C600FAD700D0640E076E620E73EC11F0060E9E
:1020D6000001D76F130ED66FAD0EE82EFED7D62FA2
:1020E600FCD7D72FFAD700D0010E0001B627000E75
:1020F600B723B823B9232FEF10F007EF00F04450B1
:10210600D96EDA6A040ED926DF50456EC6504518D8
:10211600F00B4518C66E000E2E6E000E2F6E800E4A
:10212600306EBF0E316E4450D96EDA6ADECF03F0E0
:10213600DECF04F0DECF05F0DECF06F0000E2DEC8C
:102146000EF003C015F004C016F005C017F006C067
:1021560018F0000E116E240E126EF40E136E490E58
:10216600146E65EC0CF011C02AF012C02BF013C0EF
:102176002CF014C02DF00BEC08F02AC03AF02BC05E
:102186003BF02CC03CF02DC03DF09BEC0FF03A50DC
:10219600C86E12000350D8B4D3EF10F0D5EF10F08C
:1021A600DDEF10F00550D8A4DBEF10F0DDEF10F0F6
:1021B600E0EF10F0066A00EF11F004C0C9FF9EA61A
:1021C600E7EF10F0E9EF10F0E2EF10F09E96C5BCD5
:1021D600EFEF10F0F1EF10F0F9EF10F00550D96EB7
:1021E600DA6ADF6A010E066E00EF11F00550D96E4D
:1021F600DA6A010EDF6EDDEF10F0065012001E0ED9
:10220600F66E230EF76E000EF86E00EE80F010EEFE
:1022160036F00900F5CFEEFFE550E150FAE10A0E7F
:10222600F66E240EF76E000EF86E00EE72F010EEEB
:102236000BF00900F5CFEEFFE550E150FAE100EEB4
:10224600B6F0200EEE6AE806FDE100EE48F02A0E32
:10225600EE6AE806FDE17D907D9200011EEF10F02A
:102266000350D8A439EF11F03BEF11F03EEF11F017
:10227600046A52EF11F0C584C5B444EF11F046EF7D
:1022860011F03FEF11F09E96C7A84CEF11F04EEFFC
:1022960011F050EF11F050EF11F0010E046E0450E2
:1022A60012000350D8A45AEF11F05CEF11F05FEF63
:1022B60011F0046A71EF11F0C580C5B065EF11F039
:1022C60067EF11F060EF11F09E96C7A66DEF11F063
:1022D6006FEF11F05CEF11F0010E046E0450120066
:1022E600086E6A0E036E54EC11F06A0E036E08C097
:1022F60004F0710E056ECDEC10F06A0E036E07C089
:1023060004F0710E056ECDEC10F0096E6A0E036EC8
:1023160033EC11F0096E1200800F810F820F830FCC
:10232600840F890F8A0F8B0F8C0F8D0F920F930FCF
:10233600940F950F960F323A030B131B232B333B47
:10234600020A121A626A727A020A121A222AF2948D
:102356006250016E026A02C001F0026A01BE0268A2
:102366000150D76E62C0D6FF12000350D96EDA6AEA
:10237600040ED926DF50046EC6500418F00B04185C
:10238600C66E1200016EF2900150D8A4CDEF11F086
:10239600CFEF11F0D1EF11F0D1EF11F01200016E75
:1023A600F2900150D8A4DAEF11F0DCEF11F0DEEF75
:1023B60011F0DEEF11F01200016EF2900150D8A478
:1023C600E7EF11F0E9EF11F0EBEF11F0EBEF11F0A1
:1023D6001200016EF2900150D8A4F4EF11F0F6EF5E
:1023E60011F0F8EF11F0F8EF11F01200A192495038
:1023F600B36E48C0B2FF12009E904B50CF6E4AC0DB
:0F240600CEFF1200685A622A1A622A01010101F0
:102416009E9261C0CCFF12009486948812009E960C
:102426001200F0921200F0901200F29212009D98A3
:102436001200A19012009E9412009E9C120012009F
:04244600120012006E
:020000040030CA
:0E000000FF02091EFF8181FF0FC00FE00F40BD
:00000001FF
