:0400000007EF00F016
:0A00080077820BED08F0CDEF0BF04E
:10100000003738392F3435362A3132332D23303DED
:051010002B2569000022
:101016000600FACF65F0FBCF66F0F2A815EF08F0F0
:1010260017EF08F020EF08F0F2A21CEF08F01EEF11
:1010360008F020EF08F0A0EC0CF0F0A625EF08F081
:1010460027EF08F030EF08F0F0A02CEF08F02EEFB5
:1010560008F030EF08F09EEC0CF0F0A835EF08F041
:1010660037EF08F040EF08F0F0A23CEF08F03EEF53
:1010760008F040EF08F09CEC0CF0F2A645EF08F003
:1010860047EF08F061EF08F0F2A04CEF08F04EEFE2
:1010960008F061EF08F081A853EF08F055EF08F06B
:1010A60061EF08F04E04D8A45BEF08F05DEF08F09E
:1010B60061EF08F04E6A000E78EC0CF0F2A666EFCF
:1010C60008F068EF08F083EF08F0F2A06DEF08F083
:1010D6006FEF08F083EF08F081B874EF08F076EF51
:1010E60008F083EF08F04E50D8A47CEF08F07EEFAE
:1010F60008F083EF08F0010E4E6E010E78EC0CF04E
:10110600F2A688EF08F08AEF08F0A4EF08F0F2A044
:101116008FEF08F091EF08F0A4EF08F081AA96EFA0
:1011260008F098EF08F0A4EF08F04D04D8A49EEF5D
:1011360008F0A0EF08F0A4EF08F04D6A000E6BEC83
:101146000CF0F2A6A9EF08F0ABEF08F0C6EF08F036
:10115600F2A0B0EF08F0B2EF08F0C6EF08F081BADF
:10116600B7EF08F0B9EF08F0C6EF08F04D50D8A475
:10117600BFEF08F0C1EF08F0C6EF08F0010E4D6EA4
:10118600010E6BEC0CF0F2A6CBEF08F0CDEF08F0F9
:10119600E7EF08F0F2A0D2EF08F0D4EF08F0E7EF9F
:1011A60008F081ACD9EF08F0DBEF08F0E7EF08F0C4
:1011B6004C04D8A4E1EF08F0E3EF08F0E7EF08F0FD
:1011C6004C6A000E5EEC0CF0F2A6ECEF08F0EEEFC7
:1011D60008F009EF09F0F2A0F3EF08F0F5EF08F0D8
:1011E60009EF09F081BCFAEF08F0FCEF08F009EF0F
:1011F60009F04C50D8A402EF09F004EF09F009EF0A
:1012060009F0010E4C6E010E5EEC0CF0F2A60EEF2C
:1012160009F010EF09F02AEF09F0F2A015EF09F036
:1012260017EF09F02AEF09F081AE1CEF09F01EEF67
:1012360009F02AEF09F04B04D8A424EF09F026EFB1
:1012460009F02AEF09F04B6A000E51EC0CF0F2A6F9
:101256002FEF09F031EF09F04CEF09F0F2A036EF6D
:1012660009F038EF09F04CEF09F081BE3DEF09F0C7
:101276003FEF09F04CEF09F04B50D8A445EF09F0C9
:1012860047EF09F04CEF09F0010E4B6E010E51ECE1
:101296000CF09DAC51EF09F053EF09F05CEF09F04B
:1012A6009EAC58EF09F05AEF09F05CEF09F0A2EC9A
:1012B6000CF0F2AA61EF09F063EF09F06CEF09F0A8
:1012C600F2A468EF09F06AEF09F06CEF09F043EC5D
:1012D6000CF09DA071EF09F073EF09F07CEF09F0B7
:1012E6009EA078EF09F07AEF09F07CEF09F08FEC19
:1012F6000CF09DA281EF09F083EF09F08CEF09F065
:101306009EA288EF09F08AEF09F08CEF09F095ECC0
:101316000CF0A0A291EF09F093EF09F09CEF09F011
:10132600A1A298EF09F09AEF09F09CEF09F0F8EC0A
:101336000BF066C0FBFF65C0FAFF77921100010E45
:101346006D6E6750D8B4AAEF09F0ACEF09F0BCEFA8
:1013560009F06750D96EDA6ADF30E832E832070BF7
:10136600686E070E6864BAEF09F0BCEF09F012EF79
:101376000AF06D6A28EF0AF06750D96EDA6ADF3034
:10138600E832E832070B686E010E696E682ACEEF06
:1013960009F0D8906936682ECCEF09F06950FF0A3B
:1013A6006A6E6750D96EDA6ADF50070B020DF3508A
:1013B6003C0FD96EDA6ADECF6BF0DDCF6CF06BC016
:1013C600D9FF6CC0DAFF6A50DF1628EF0AF06750C3
:1013D600D96EDA6ADF30E832E832070B686E010E42
:1013E600696E682AF9EF09F0D8906936682EF7EF2A
:1013F60009F06750D96EDA6ADF50070B020DF35019
:101406003C0FD96EDA6ADECF6AF0DDCF6BF06AC0C8
:10141600D9FF6BC0DAFF6950DF1228EF0AF0675078
:10142600D96EDA6ADFBC1AEF0AF01DEF0AF0010E78
:101436001EEF0AF0000E000AD8B4BFEF09F0010A49
:10144600D8B4EAEF09F0BCEF09F06D501200010EB6
:101456006E6E6750D8B432EF0AF034EF0AF044EFFC
:101466000AF06750D96EDA6ADF30E832E832070BE5
:10147600696E070E696442EF0AF044EF0AF09AEFCC
:101486000AF06E6AAFEF0AF06750D96EDA6ADF309B
:10149600E832E832070B696E010E6A6E692A56EF6A
:1014A6000AF0D8906A36692E54EF0AF06750D96E62
:1014B600DA6ADF50070B020DF350320FD96EDA6A83
:1014C600DECF6BF0DDCF6CF06BC0D9FF6CC0DAFFFE
:1014D6006A50DF12AFEF0AF06750D96EDA6ADF3072
:1014E600E832E832070B696E010E6A6E692A7EEFF2
:1014F6000AF0D8906A36692E7CEF0AF06A50FF0A25
:101506006B6E6750D96EDA6ADF50070B020DF35027
:10151600320FD96EDA6ADECF6CF0DDCF6DF06CC0BB
:10152600D9FF6DC0DAFF6B50DF16AFEF0AF06850D7
:10153600696E6A6A6A50000AD8B4A4EF0AF044EFEA
:101546000AF06950000AD8B46FEF0AF0010AD8B45D
:1015560047EF0AF044EF0AF06E5012006850D8A424
:10156600B7EF0AF0B9EF0AF0BCEF0AF06B6AFEEFCC
:101576000AF0B19068C067F000EC0BF06850D96EC5
:10158600DA6A020ED926DF30E832030B696E693A51
:10159600B1506918CF0B6918B16E6850D96EDA6A06
:1015A600030ED926DF50696E6A6A6AC069F06A6AF4
:1015B60069BE6A686950B36E6850D96EDA6A030EFE
:1015C600D926DF50B26E6850D96EDA6A030ED92674
:1015D600DF50696E6950036E046AA082A19268505A
:1015E600D96EDA6ADECF01F0DDCF02F0F28EF28C30
:1015F600B180010E6B6E6B5012006750D96EDA6ABD
:10160600020ED926DFA00AEF0BF00CEF0BF02DEF40
:101616000BF0B1826750D96EDA6A020ED926DFA2C4
:1016260017EF0BF019EF0BF01CEF0BF0B1843AEF4C
:101636000BF06750D96EDA6A020ED926DFB226EFB2
:101646000BF028EF0BF02BEF0BF0B1943AEF0BF009
:101656003AEF0BF06750D96EDA6A020ED926DFB080
:1016660037EF0BF039EF0BF03AEF0BF0B1921200B7
:10167600010E746E7250D8A443EF0BF045EF0BF0D9
:1016860048EF0BF0746A70EF0BF02FC075F07250D4
:10169600D96EDA6ADF500F0B736E75507318F80B3C
:1016A6007318756E7250D96EDA6ADF38070B736E6F
:1016B60073467346734675507318C70B7318756E69
:1016C600759C7250D96EDA6ADFAE02D0758E01D083
:1016D600759E750E6F6E72EC0BF0745012006F50A3
:1016E600D8B478EF0BF07AEF0BF08AEF0BF06F506F
:1016F600D96EDA6ADF30E832E832070B706E070E11
:10170600706488EF0BF08AEF0BF08DEF0BF0716AC7
:101716009EEF0BF06FC067F0A2EC09F0716E6FC020
:1017260067F06F50D96EDA6A000EDFBE010E686E82
:101736002AEC0AF0716E715012006D6A6E6A67507B
:10174600D8A4A8EF0BF0AAEF0BF0B5EF0BF068509A
:10175600D8A4B0EF0BF0B2EF0BF0B5EF0BF06F6A59
:10176600CBEF0BF0B2CF6DF0B3CF6EF06E506A6E6A
:10177600696A6D5069246B6E000E6A206C6E685043
:10178600D96EDA6A6BC0DEFF6CC0DDFF010E6F6ECC
:101796006F5012000A0EF66E190EF76E000EF86EF6
:1017A60000EE80F010EE14F00900F5CFEEFFE550E4
:1017B600E150FAE1260EF66E180EF76E000EF86E80
:1017C60000EE32F010EE31F00900F5CFEEFFE550F5
:1017D600E150FAE100EE01F0310EEE6AE806FDE1B5
:1017E6007790779200012CEF0CF0A1920450B36E23
:1017F60003C0B2FF01500210D8B404EF0CF006EF9C
:101806000CF012EF0CF002D812EF0CF00500FA6E95
:101816000150FD6E0250FE6EFF6AFA501200120071
:10182600890F8A0F8B0F8C0F8D0F920F930F940FCA
:10183600950F960F321918B00001010101020A1224
:101846001A626A727A020A121A222A3219110000E0
:01185600038E
:10185800A4EC0CF0620E726E3BEC0BF0766E5D0E33
:10186800686EB1EC0AF0766E5D0E676E300E686ECB
:10187800A0EC0BF0766E38EF0CF007EF00F0F29466
:101888002850636E646A64C063F0646A63BE646807
:101898006350D76E28C0D6FF1200636EF290635073
:1018A800D8A459EF0CF05BEF0CF05DEF0CF05DEF96
:1018B8000CF01200636EF2906350D8A466EF0CF03F
:1018C80068EF0CF06AEF0CF06AEF0CF01200636E30
:1018D800F2906350D8A473EF0CF075EF0CF077EF2B
:1018E8000CF077EF0CF01200636EF2906350D8A4FE
:1018F80080EF0CF082EF0CF084EF0CF084EF0CF02A
:101908001200800F810F820F830F840F323A030B6E
:10191800131B232B333B9E900A50CF6E09C0CEFF7A
:1019280012009E9227C0CCFF1200074A082A120014
:10193800F0921200F0901200F29212009E9C120097
:0219480012008B
:020000040030CA
:0E000000FF02091EFF8181FF0FC00FE00F40BD
:00000001FF
