:0400000007EF00F016
:0A0008007D820BED08F0D4EF0BF041
:10100000003738392F3435362A3132332D23303DED
:051010002B2569000022
:101016000600F2A811EF08F013EF08F01CEF08F035
:10102600F2A218EF08F01AEF08F01CEF08F0E3EC54
:101036000CF0F0A621EF08F023EF08F02CEF08F0F3
:10104600F0A028EF08F02AEF08F02CEF08F0E1EC0A
:101056000CF0F0A831EF08F033EF08F03CEF08F0A1
:10106600F0A238EF08F03AEF08F03CEF08F0DFECBA
:101076000CF0F2A641EF08F043EF08F05DEF08F040
:10108600F2A048EF08F04AEF08F05DEF08F081A8FB
:101096004FEF08F051EF08F05DEF08F05E04D8A4BA
:1010A60057EF08F059EF08F05DEF08F05E6A000EA2
:1010B600B4EC0CF0F2A662EF08F064EF08F07FEFF4
:1010C60008F0F2A069EF08F06BEF08F07FEF08F088
:1010D60081B870EF08F072EF08F07FEF08F05E500D
:1010E600D8A478EF08F07AEF08F07FEF08F0010E49
:1010F6005E6E010EB4EC0CF0F2A684EF08F086EFFB
:1011060008F0A0EF08F0F2A08BEF08F08DEF08F0E2
:10111600A0EF08F081AA92EF08F094EF08F0A0EF94
:1011260008F05D04D8A49AEF08F09CEF08F0A0EF51
:1011360008F05D6A000EA7EC0CF0F2A6A5EF08F029
:10114600A7EF08F0C2EF08F0F2A0ACEF08F0AEEFA0
:1011560008F0C2EF08F081BAB3EF08F0B5EF08F077
:10116600C2EF08F05D50D8A4BBEF08F0BDEF08F061
:10117600C2EF08F0010E5D6E010EA7EC0CF0F2A6B0
:10118600C7EF08F0C9EF08F0E3EF08F0F2A0CEEFE2
:1011960008F0D0EF08F0E3EF08F081ACD5EF08F0E7
:1011A600D7EF08F0E3EF08F05C04D8A4DDEF08F011
:1011B600DFEF08F0E3EF08F05C6A000E9AEC0CF043
:1011C600F2A6E8EF08F0EAEF08F005EF09F0F2A062
:1011D600EFEF08F0F1EF08F005EF09F081BCF6EF4C
:1011E60008F0F8EF08F005EF09F05C50D8A4FEEF20
:1011F60008F000EF09F005EF09F0010E5C6E010E34
:101206009AEC0CF0F2A60AEF09F00CEF09F026EFC3
:1012160009F0F2A011EF09F013EF09F026EF09F03B
:1012260081AE18EF09F01AEF09F026EF09F05B041A
:10123600D8A420EF09F022EF09F026EF09F05B6A47
:10124600000E8DEC0CF0F2A62BEF09F02DEF09F055
:1012560048EF09F0F2A032EF09F034EF09F048EF59
:1012660009F081BE39EF09F03BEF09F048EF09F0CC
:101276005B50D8A441EF09F043EF09F048EF09F0BD
:10128600010E5B6E010E8DEC0CF09DAC4DEF09F07E
:101296004FEF09F058EF09F09EAC54EF09F056EF06
:1012A60009F058EF09F0EBEC0CF0F2AA5DEF09F04B
:1012B6005FEF09F068EF09F0F2A464EF09F066EF5A
:1012C60009F068EF09F072EC0CF09DA06DEF09F0E3
:1012D6006FEF09F078EF09F09EA074EF09F076EF52
:1012E60009F078EF09F0D3EC0CF09DA27DEF09F040
:1012F6007FEF09F088EF09F09EA284EF09F086EFF0
:1013060009F088EF09F0D9EC0CF0A0A28DEF09F0F6
:101316008FEF09F098EF09F0A1A294EF09F096EF8C
:1013260009F098EF09F0CDEC0CF09DA49DEF09F0C3
:101336009FEF09F0A8EF09F09EA4A4EF09F0A6EF2D
:1013460009F0A8EF09F0E9EC0CF0A0A0ADEF09F068
:10135600AFEF09F0B8EF09F0A1A0B4EF09F0B6EFCE
:1013660009F0B8EF09F0E7EC0CF09DA8BDEF09F025
:10137600BFEF09F0C8EF09F09EA8C4EF09F0C6EF69
:1013860009F0C8EF09F0E5EC0CF09DAACDEF09F0E5
:10139600CFEF09F0D8EF09F09EAAD4EF09F0D6EF07
:1013A60009F0D8EF09F0EDEC0CF09DA6DDEF09F0A1
:1013B600DFEF09F0E8EF09F09EA6E4EF09F0E6EFAB
:1013C60009F0E8EF09F0DDEC0CF07D9211007A509F
:1013D600D8A4F0EF09F0F2EF09F0F6EF09F00001FA
:1013E6009C6B95EF0AF0C69A7A50D96EDA6A030EAC
:1013F600D926DF507B6EC6507B18F00B7B18C66E65
:101406007AC06DF0C1EC0CF07A50D96EDA6A030E30
:10141600D926DF50D8B412EF0AF014EF0AF03DEFE8
:101426000AF07A50D96EDA6A030ED926DE04D8B4E9
:101436001FEF0AF021EF0AF03DEF0AF07A50D96E5D
:10144600DA6A030ED926020EDE18D8B42DEF0AF09A
:101456002FEF0AF03DEF0AF07A50D96EDA6A030EE2
:10146600D926030EDE18D8A43BEF0AF03DEF0AF0AA
:1014760043EF0AF07AC074F051EC0CF063EF0AF017
:101486007A50D96EDA6A030ED926050EDE18D8B45C
:101496004FEF0AF051EF0AF05FEF0AF07A50D96E7B
:1014A600DA6A030ED926040EDE18D8A45DEF0AF018
:1014B6005FEF0AF063EF0AF07AC074F0FFEC0BF00E
:1014C6007A50D96EDA6A040ED926DF50030B7B6E8A
:1014D6007B3AC6507B18EF0B7B18C66E7A50D96ED6
:1014E600DA6A040ED926DF30E832030B7B6E7B32D4
:1014F6007B32C7507B187F0B7B18C76E7A50D96E2C
:10150600DA6A040ED926DF38030B7B6E7B3A7B46FC
:101516007B46C7507B18BF0B7B18C76EC68A010E69
:1015260000019C6F9C511200010E736E6D50D8B471
:101536009FEF0AF0A1EF0AF0B1EF0AF06D50D96EF5
:10154600DA6ADF30E832E832070B6E6E070E6E6439
:10155600AFEF0AF0B1EF0AF007EF0BF0736A1DEF79
:101566000BF06D50D96EDA6ADF30E832E832070BDD
:101576006E6E010E6F6E6E2AC3EF0AF0D8906F364C
:101586006E2EC1EF0AF06F50FF0A706E6D50D96E65
:10159600DA6ADF50070B020DF3504A0FD96EDA6A8A
:1015A600DECF71F0DDCF72F071C0D9FF72C0DAFF05
:1015B6007050DF161DEF0BF06D50D96EDA6ADF3012
:1015C600E832E832070B6E6E010E6F6E6E2AEEEF92
:1015D6000AF0D8906F366E2EECEF0AF06D50D96E89
:1015E600DA6ADF50070B020DF3504A0FD96EDA6A3A
:1015F600DECF70F0DDCF71F070C0D9FF71C0DAFFB9
:101606006F50DF121DEF0BF06D50D96EDA6ADFBC3A
:101616000FEF0BF012EF0BF0010E13EF0BF0000EB5
:10162600000AD8B4B4EF0AF0010AD8B4DFEF0AF022
:10163600B1EF0AF073501200010E746E6D50D8B4FB
:1016460027EF0BF029EF0BF039EF0BF06D50D96E49
:10165600DA6ADF30E832E832070B6F6E070E6F6426
:1016660037EF0BF039EF0BF08FEF0BF0746AA4EF46
:101676000BF06D50D96EDA6ADF30E832E832070BCC
:101686006F6E010E706E6F2A4BEF0BF0D8907036AE
:101696006F2E49EF0BF06D50D96EDA6ADF50070BEB
:1016A600020DF350400FD96EDA6ADECF71F0DDCF4E
:1016B60072F071C0D9FF72C0DAFF7050DF12A4EF6A
:1016C6000BF06D50D96EDA6ADF30E832E832070B7C
:1016D6006F6E010E706E6F2A73EF0BF0D890703636
:1016E6006F2E71EF0BF07050FF0A716E6D50D96E50
:1016F600DA6ADF50070B020DF350400FD96EDA6A33
:10170600DECF72F0DDCF73F072C0D9FF73C0DAFF9F
:101716007150DF16A4EF0BF06E506F6E706A70504A
:10172600000AD8B499EF0BF039EF0BF06F50000AAE
:10173600D8B464EF0BF0010AD8B43CEF0BF039EFE4
:101746000BF0745012007550D8B4ACEF0BF0AEEF3E
:101756000BF0BEEF0BF07550D96EDA6ADF30E83267
:10176600E832070B766E070E7664BCEF0BF0BEEF21
:101776000BF0C1EF0BF0776AD2EF0BF075C06DF08E
:1017860097EC0AF0776E75C06DF07550D96EDA6A0F
:10179600000EDFBE010E6E6E1FEC0BF0776E7750FB
:1017A6001200C80EF66E180EF76E000EF86E00EEFA
:1017B60080F010EE1CF00900F5CFEEFFE550E15089
:1017C600FAE14C0EF66E180EF76E000EF86E00EE8D
:1017D60040F010EE2BF00900F5CFEEFFE550E1509A
:1017E600FAE100EE01F03F0EEE6AE806FDE17D90BB
:1017F6007D9200013CEF0CF057C076F056C077F0B2
:1018060055C078F054C079F0760E6D6E97EC0AF0FC
:10181600770E6D6E97EC0AF0780E6D6E97EC0AF007
:101826007450D96EDA6A030ED926040EDE18D8A4CF
:101836001FEF0CF021EF0CF025EF0CF0790E6D6E1A
:1018460097EC0AF01200890F8A0F8B0F8C0F8D0F01
:10185600920F930F940F950F960F685A622A1A6289
:101866002A01010101020A121A222A0000000515A6
:01187600036E
:10187800650E7A6EEAEC09F07C6E6A0E756EA6EC5F
:101888000BF07C6E650E6D6E3F0E6E6E80EC0CF08C
:101898007C6E46EF0CF007EF00F05AC075F059C0A7
:1018A80076F058C077F0750E6D6E97EC0AF0760EEC
:1018B8006D6E97EC0AF0770E6D6E97EC0AF01200D9
:1018C800800F810F820F830F840F323A030B131B93
:1018D800232B333B020A121A626A727AF294375047
:1018E8006B6E6C6A6CC06BF06C6A6BBE6C686B502C
:1018F800D76E37C0D6FF1200C7A085EF0CF087EF70
:101908000CF080EF0CF06E50D96EDA6AC9CFDFFFA9
:1019180012006B6EF2906B50D8A495EF0CF097EF15
:101928000CF099EF0CF099EF0CF012006B6EF2903E
:101938006B50D8A4A2EF0CF0A4EF0CF0A6EF0CF0BB
:10194800A6EF0CF012006B6EF2906B50D8A4AFEFBC
:101958000CF0B1EF0CF0B3EF0CF0B3EF0CF0120099
:101968006B6EF2906B50D8A4BCEF0CF0BEEF0CF08D
:10197800C0EF0CF0C0EF0CF012009D869E966D50E3
:10198800D96EDA6ADECF01F0DDCF02F0F28EF28C8A
:101998001200A1920E50B36E0DC0B2FF12009E90BD
:1019A8001250CF6E11C0CEFF12009E9236C0CCFFEF
:1019B80012009E961200F0921200F0901200F2921D
:1019C80012009D981200A19012009E9412009E9CF5
:0419D80012001200E7
:020000040030CA
:0E000000FF02091EFF8181FF0FC00FE00F40BD
:00000001FF
