:0400000007EF00F016
:0A0008006E820BED08F01AEF0FF006
:10100000003738392F3435362A3132332D23303DED
:051010002B2569000022
:101016000600FACF63F0FBCF64F0D9CF65F0DACFE4
:1010260066F0F3CF67F0F4CF68F0F2A81DEF08F092
:101036001FEF08F028EF08F0F2A224EF08F026EFE1
:1010460008F028EF08F015EC10F0F0A62DEF08F0E8
:101056002FEF08F038EF08F0F0A034EF08F036EF85
:1010660008F038EF08F013EC10F0F0A83DEF08F0A8
:101076003FEF08F048EF08F0F0A244EF08F046EF23
:1010860008F048EF08F011EC10F0F2A64DEF08F06A
:101096004FEF08F069EF08F0F2A054EF08F056EFB2
:1010A60008F069EF08F081A85BEF08F05DEF08F043
:1010B60069EF08F01804D8A463EF08F065EF08F0AC
:1010C60069EF08F0186A000E35EC0DF0F2A66EEF27
:1010D60008F070EF08F08BEF08F0F2A075EF08F05B
:1010E60077EF08F08BEF08F081B87CEF08F07EEF21
:1010F60008F08BEF08F01850D8A484EF08F086EFBC
:1011060008F08BEF08F0010E186E010E35EC0DF0AD
:10111600F2A690EF08F092EF08F0ACEF08F0F2A01C
:1011260097EF08F099EF08F0ACEF08F081AA9EEF70
:1011360008F0A0EF08F0ACEF08F01704D8A4A6EF6B
:1011460008F0A8EF08F0ACEF08F0176A000EF6EC0E
:101156000CF0F2A6B1EF08F0B3EF08F0CEEF08F00E
:10116600F2A0B8EF08F0BAEF08F0CEEF08F081BAB7
:10117600BFEF08F0C1EF08F0CEEF08F01750D8A483
:10118600C7EF08F0C9EF08F0CEEF08F0010E176EB2
:10119600010EF6EC0CF0F2A6D3EF08F0D5EF08F04E
:1011A600EFEF08F0F2A0DAEF08F0DCEF08F0EFEF6F
:1011B60008F081ACE1EF08F0E3EF08F0EFEF08F09C
:1011C6001604D8A4E9EF08F0EBEF08F0EFEF08F00B
:1011D600166A000EB7EC0CF0F2A6F4EF08F0F6EF84
:1011E60008F011EF09F0F2A0FBEF08F0FDEF08F0B0
:1011F60011EF09F081BC02EF09F004EF09F011EFDD
:1012060009F01650D8A40AEF09F00CEF09F011EF17
:1012160009F0010E166E010EB7EC0CF0F2A616EFF1
:1012260009F018EF09F032EF09F0F2A01DEF09F00E
:101236001FEF09F032EF09F081AE24EF09F026EF37
:1012460009F032EF09F01504D8A42CEF09F02EEFBF
:1012560009F032EF09F0156A000E78EC0CF0F2A6F0
:1012660037EF09F039EF09F054EF09F0F2A03EEF3D
:1012760009F040EF09F054EF09F081BE45EF09F09F
:1012860047EF09F054EF09F01550D8A44DEF09F0D7
:101296004FEF09F054EF09F0010E156E010E78ECD0
:1012A6000CF068C0F4FF67C0F3FF66C0DAFF65C0E4
:1012B600D9FF64C0FBFF63C0FAFF6E921100010EF6
:1012C6006A6E6950D8B46AEF09F06CEF09F07DEFE9
:1012D60009F06950D96EDA6ADF30E832E832070B76
:1012E60000019C6F070E9C657BEF09F07DEF09F00E
:1012F600D5EF09F06A6AEBEF09F06950D96EDA6A40
:10130600DF30E832E832070B9C6F010E9D6F9C2B95
:101316008FEF09F0D8909D379C2F8DEF09F00001D3
:101326009D51FF0A9E6F6950D96EDA6ADF50070B2E
:10133600020DF3500B0FD96EDA6ADECF9FF0DDCFC8
:10134600A0F09FC0D9FFA0C0DAFF9E51DF16EBEFD9
:1013560009F06950D96EDA6ADF30E832E832070BF5
:101366009C6F010E9D6F9C2BBBEF09F0D8909D37AB
:101376009C2FB9EF09F06950D96EDA6ADF50070B76
:10138600020DF3500B0FD96EDA6ADECF9EF0DDCF79
:101396009FF09EC0D9FF9FC0DAFF00019D51DF126A
:1013A600EBEF09F06950D96EDA6ADFBCDDEF09F0C0
:1013B600E0EF09F0010EE1EF09F0000E000AD8B4E3
:1013C60080EF09F0010AD8B4ACEF09F07DEF09F01F
:1013D6006A501200010E6B6E6950D8B4F5EF09F031
:1013E600F7EF09F008EF0AF06950D96EDA6ADF30D4
:1013F600E832E832070B00019C6F070E9C6506EF8A
:101406000AF008EF0AF060EF0AF06B6A75EF0AF06F
:101416006950D96EDA6ADF30E832E832070B9C6F22
:10142600010E9D6F9C2B1AEF0AF0D8909D379C2FCA
:1014360018EF0AF06950D96EDA6ADF50070B020D11
:10144600F350010FD96EDA6ADECF9EF0DDCF9FF042
:101456009EC0D9FF9FC0DAFF00019D51DF1275EFD4
:101466000AF06950D96EDA6ADF30E832E832070BE3
:101476009C6F010E9D6F9C2B43EF0AF0D8909D3711
:101486009C2F41EF0AF000019D51FF0A9E6F6950A3
:10149600D96EDA6ADF50070B020DF350010FD96ED1
:1014A600DA6ADECF9FF0DDCFA0F09FC0D9FFA0C0E3
:1014B600DAFF9E51DF1675EF0AF06A509C6F9D6B3E
:1014C6009D51000AD8B46AEF0AF008EF0AF09C5161
:1014D600000AD8B434EF0AF0010AD8B40BEF0AF0C8
:1014E60008EF0AF06B5012005850D8B47DEF0AF09E
:1014F6007FEF0AF08FEF0AF05850D96EDA6ADF30C4
:10150600E832E832070B5A6E070E5A648DEF0AF07E
:101516008FEF0AF0E4EF0AF0F9EF0AF05850D96EAF
:10152600DA6ADF30E832E832070B5A6E010E5B6E7C
:101536005A2AA0EF0AF0D8905B365A2E9EEF0AF090
:101546005850D96EDA6ADF50070B020DF350010FBF
:10155600D96EDA6ADECF5CF0DDCF5DF05CC0D9FF14
:101566005DC0DAFF5B50DF12F9EF0AF05850D96E12
:10157600DA6ADF30E832E832070B5A6E010E5B6E2C
:101586005A2AC8EF0AF0D8905B365A2EC6EF0AF0F0
:101596005B50FF0A5C6E5850D96EDA6ADF50070B53
:1015A600020DF350010FD96EDA6ADECF5DF0DDCFA2
:1015B6005EF05DC0D9FF5EC0DAFF5C50DF16F9EF62
:1015C6000AF059505A6E5B6A5B50000AD8B4EEEFC7
:1015D6000AF08FEF0AF05A50000AD8B4B9EF0AF0B1
:1015E600010AD8B491EF0AF08FEF0AF01200010E4B
:1015F6000001AA6FA751D8A403EF0BF005EF0BF07B
:1016060007EF0BF079EF0BF0A7C06CF0B9EC0EF01A
:101616000001AA6FA7296C6EB9EC0EF00001AA6F43
:10162600A96BA751A925020F6C6EB9EC0EF000014B
:10163600A92B070EA96522EF0BF024EF0BF014EF90
:101646000BF01A0E0001A86FF80EE82EFED7A82F91
:10165600FCD70000A7C0A1F0380E0001A26F74EC01
:101666000DF0070E0001A86F7D0EE82EFED7A82FFD
:10167600FCD7A7C0A1F0380E0001A26F74EC0DF0E4
:10168600320EE82EFED7A7C0A1F0380E0001A26FD9
:1016960074EC0DF0A7C0A1F0010E0001A26F74EC6E
:1016A6000DF0A7C0A1F0020E0001A26F74EC0DF0C0
:1016B600A7C0A1F0060E0001A26F74EC0DF0A7C042
:1016C600A1F00C0E0001A26F74EC0DF0A7C0A1F002
:1016D600380E0001A26F74EC0DF0A7C0A1F0800EC9
:1016E6000001A26F74EC0DF00001AA6FAA5112005E
:1016F6000001A851D8A482EF0BF084EF0BF087EF1E
:101706000BF0AB6BF9EF0BF0A8C06CF0B9EC0EF078
:101716000001AB6FA8296C6EB9EC0EF00001AB6F3F
:10172600AA6BA851AA25020F6C6EB9EC0EF0000147
:10173600AA2B030EAA65A2EF0BF0A4EF0BF094EF11
:101746000BF01A0E0001A96FF80EE82EFED7A92F8E
:10175600FCD70000A8C0A5F0380E0001A66F55EC16
:101766000EF0070E0001A96F7D0EE82EFED7A92FF9
:10177600FCD7A8C0A5F0380E0001A66F55EC0EF0F8
:10178600320EE82EFED7A8C0A5F0380E0001A66FCF
:1017960055EC0EF0A8C0A5F0010E0001A66F55ECA1
:1017A6000EF0A8C0A5F0020E0001A66F55EC0EF0D3
:1017B600A8C0A5F0060E0001A66F55EC0EF0A8C055
:1017C600A5F00C0E0001A66F55EC0EF0A8C0A5F012
:1017D600280E0001A66F55EC0EF0A8C0A5F0800EED
:1017E6000001A66F55EC0EF00001AB6FAB51120075
:1017F6006B50D8A401EF0CF003EF0CF006EF0CF0E1
:101806006C6A76EF0CF0F296F290F28CF28E6B50D8
:10181600040F696E62EC09F06C6E5AEF0CF06B50B7
:10182600D96EDA6ADECF49F0DDCF4AF06B50D96E59
:10183600DA6A020ED926DECF47F0DDCF48F075EF23
:101846000CF06B50D96EDA6ADECF45F0DDCF46F08C
:101856006B50D96EDA6A020ED926DECF43F0DDCFA1
:1018660044F075EF0CF06B50D96EDA6ADECF41F0BA
:10187600DDCF42F06B50D96EDA6A020ED926DECF82
:101886003FF0DDCF40F075EF0CF06B50D96EDA6AA1
:10189600DECF3DF0DDCF3EF06B50D96EDA6A020E38
:1018A600D926DECF3BF0DDCF3CF075EF0CF06B5068
:1018B600D96EDA6A040ED926DF30E832E832070B31
:1018C600040AD8B412EF0CF0010AD8B424EF0CF0D5
:1018D600030AD8B436EF0CF0010AD8B448EF0CF07E
:1018E60075EF0CF0F2866C501200626EF290625048
:1018F600D8A480EF0CF082EF0CF099EF0CF03D507D
:101906003E10D8B489EF0CF08BEF0CF0B6EF0CF06C
:1019160002D897EF0CF00500FA6E3D50FD6E3E5072
:10192600FE6EFF6AFA501200B6EF0CF06204D8A4FD
:101936009FEF0CF0A1EF0CF0B6EF0CF03B503C1013
:10194600D8B4A8EF0CF0AAEF0CF0B6EF0CF002D862
:10195600B6EF0CF00500FA6E3B50FD6E3C50FE6E85
:10196600FF6AFA5012001200626EF2906250D8A41A
:10197600BFEF0CF0C1EF0CF0D8EF0CF04150421065
:10198600D8B4C8EF0CF0CAEF0CF0F5EF0CF002D8A3
:10199600D6EF0CF00500FA6E4150FD6E4250FE6E19
:1019A600FF6AFA501200F5EF0CF06204D8A4DEEFDD
:1019B6000CF0E0EF0CF0F5EF0CF03F504010D8B40F
:1019C600E7EF0CF0E9EF0CF0F5EF0CF002D8F5EFCD
:1019D6000CF00500FA6E3F50FD6E4050FE6EFF6A39
:1019E600FA5012001200626EF2906250D8A4FEEF16
:1019F6000CF000EF0DF017EF0DF045504610D8B47F
:101A060007EF0DF009EF0DF034EF0DF002D815EFEA
:101A16000DF00500FA6E4550FD6E4650FE6EFF6AEB
:101A2600FA50120034EF0DF06204D8A41DEF0DF049
:101A36001FEF0DF034EF0DF043504410D8B426EFED
:101A46000DF028EF0DF034EF0DF002D834EF0DF065
:101A56000500FA6E4350FD6E4450FE6EFF6AFA5062
:101A660012001200626EF2906250D8A43DEF0DF0A3
:101A76003FEF0DF056EF0DF049504A10D8B446EF3F
:101A86000DF048EF0DF073EF0DF002D854EF0DF0A6
:101A96000500FA6E4950FD6E4A50FE6EFF6AFA5016
:101AA600120073EF0DF06204D8A45CEF0DF05EEF48
:101AB6000DF073EF0DF047504810D8B465EF0DF0F8
:101AC60067EF0DF073EF0DF002D873EF0DF0050020
:101AD600FA6E4750FD6E4850FE6EFF6AFA501200CD
:101AE6001200010E0001A56FA151D8A47DEF0DF0E3
:101AF6007FEF0DF081EF0DF0AFEF0DF0A1C069F0B3
:101B0600000E6A6EEDEC09F00001A66BA151A62548
:101B1600020F696EA6C0A3F0A2C0A4F0A32B96EF95
:101B26000DF0D890A433A32F94EF0DF00001A4512B
:101B3600010B6A6EEDEC09F00001A62B070EA665F7
:101B4600A7EF0DF0A9EF0DF089EF0DF0A1C06CF035
:101B56006FEC0FF00001A56FA5511200010E0001F8
:101B6600A46FA251D8A4BAEF0DF0BCEF0DF0BFEFF1
:101B76000DF0A46BE8EF0DF057C0A5F0A251D96E99
:101B8600DA6ADF500F0BA36FA551A319F80BA3193F
:101B9600A56FA251D96EDA6ADF38070BA36FA34788
:101BA600A347A347A551A319C70BA319A56FA59DC5
:101BB600A251D96EDA6ADFAE02D0A58F02D000013B
:101BC600A59FA50E6C6EB9EC0EF00001A451120093
:101BD6005F50D8A4F1EF0DF0F3EF0DF0F5EF0DF037
:101BE6001FEF0EF055C061F05F50D96EDA6ADF5014
:101BF6000F0B606E61506018F80B6018616E5F50D5
:101C0600D96EDA6ADF38070B606E6046604660465A
:101C160061506018C70B6018616E619C5F50D96E89
:101C2600DA6ADFAE02D0618E01D0619E610E586E17
:101C3600000E596E77EC0AF012005F50D8A426EF1A
:101C46000EF028EF0EF02AEF0EF054EF0EF056C00D
:101C560061F05F50D96EDA6ADF500F0B606E61502B
:101C66006018F80B6018616E5F50D96EDA6ADF385B
:101C7600070B606E60466046604661506018C70B91
:101C86006018616E619C5F50D96EDA6ADFAE02D071
:101C9600618E01D0619E610E586E010E596E77EC11
:101CA6000AF012000001A551D8A45CEF0EF05EEF19
:101CB6000EF061EF0EF0A76B86EF0EF0A5C069F08F
:101CC600000E6A6EEDEC09F00001A76FA5C06CF07E
:101CD600A6390F0B6D6E88EC0EF00001A76FA5C03C
:101CE6006CF08DEC0FF00001A76FA5C06CF0A6C0DC
:101CF6006DF088EC0EF00001A76FA5C06CF08DECBE
:101D06000FF00001A76FA7511200010E0001A36F8B
:101D16006C50D8A491EF0EF093EF0EF095EF0EF005
:101D2600B7EF0EF0A46B6C50A425020F696EA4C029
:101D3600A1F06DC0A2F0A12BA3EF0EF0D890A233B4
:101D4600A12FA1EF0EF00001A251010B6A6EEDEC7E
:101D560009F00001A36FA42B030EA465B5EF0EF0E6
:101D6600B7EF0EF096EF0EF0A35112006C50D8B4F8
:101D7600BFEF0EF0C1EF0EF0D1EF0EF06C50D96E42
:101D8600DA6ADF30E832E832070B6D6E070E6D64F3
:101D9600CFEF0EF0D1EF0EF0D5EF0EF00001A16BF4
:101DA600E8EF0EF06CC069F062EC09F00001A16F7B
:101DB6006CC069F06C50D96EDA6A000EDFBE010E97
:101DC6006A6EEDEC09F00001A16FA151120000014D
:101DD600A251D8A4F1EF0EF0F3EF0EF0F6EF0EF0ED
:101DE600A36B18EF0FF0A46BA251A4256C6EB9EC8F
:101DF6000EF00001A42B030EA46504EF0FF006EF0E
:101E06000FF0F7EF0EF0A56BA251A525040F696E32
:101E160062EC09F00001A36FA52B030EA56516EF72
:101E26000FF018EF0FF007EF0FF0A3511200B00EEE
:101E3600F66E1F0EF76E000EF86E00EE80F010EED6
:101E46001CF00900F5CFEEFFE550E150FAE1560E21
:101E5600F66E1F0EF76E000EF86E00EE01F010EE35
:101E66003AF00900F5CFEEFFE550E150FAE100EE59
:101E76003BF01D0EEE6AE806FDE16E906E920001E3
:101E860045EF0FF00EEC10F03A0E0001A26FB1EC28
:101E96000DF0390E0001A26FB1EC0DF0380E000105
:101EA600A26FB1EC0DF0370E0001A26FB1EC0DF090
:101EB6002B0E6B6EFBEC0BF0250E6B6EFBEC0BF03A
:101EC6001F0E6B6EFBEC0BF0190E6B6EFBEC0BF042
:101ED6006BEF0FF007EF00F0010E6D6E6C50D8A49B
:101EE60077EF0FF079EF0FF07BEF0FF08BEF0FF03E
:101EF6006C28696E010E6A6EEDEC09F000D000D018
:101F060000006C28696E000E6A6EEDEC09F06D6ECD
:101F16006D501200010E6D6E6C50D8A495EF0FF047
:101F260097EF0FF099EF0FF0A9EF0FF06C28696E9D
:101F3600010E6A6EEDEC09F000D000D000006C28AE
:101F4600696E000E6A6EEDEC09F06D6E6D50120052
:101F5600890F8A0F8B0F8C0F8D0F920F930F940F93
:101F6600950F960F010101011220EA1F7901F41F56
:101F7600CC1F7101FE1FD61F69010820E01F6101F9
:101F8600020A121A222A32221202940E0001A26FAB
:101F9600EAEC0EF0310E0001A86F7BEC0BF08A0E16
:101FA6000001A76FFAEC0AF01200800F810F820F72
:101FB600830F840F323A030B131B232B333B020A86
:101FC600121A626A727A370E5F6E20EC0EF01200F9
:101FD600390E5F6EEBEC0DF01200390E5F6E20ECE1
:101FE6000EF01200370E5F6EEBEC0DF01200380E9D
:101FF6005F6E20EC0EF012003A0E5F6EEBEC0DF009
:1020060012003A0E5F6E20EC0EF01200380E5F6E74
:10201600EBEC0DF01200C8EC0FF01200F09212007B
:08202600F0901200F29212008A
:020000040030CA
:0E000000FF02091EFF8181FF0FC00FE00F40BD
:00000001FF
